{
  "_format": "hh-sol-artifact-1",
  "contractName": "PerpetualSwap",
  "sourceName": "contracts/perpetualswap.sol",
  "abi": [
    {
      "inputs": [
        {
          "internalType": "address",
          "name": "_vaultAddress",
          "type": "address"
        }
      ],
      "stateMutability": "nonpayable",
      "type": "constructor"
    },
    {
      "inputs": [],
      "name": "closePosition",
      "outputs": [],
      "stateMutability": "nonpayable",
      "type": "function"
    },
    {
      "inputs": [
        {
          "internalType": "address",
          "name": "",
          "type": "address"
        }
      ],
      "name": "collateral",
      "outputs": [
        {
          "internalType": "uint256",
          "name": "",
          "type": "uint256"
        }
      ],
      "stateMutability": "view",
      "type": "function"
    },
    {
      "inputs": [],
      "name": "depositCollateral",
      "outputs": [],
      "stateMutability": "payable",
      "type": "function"
    },
    {
      "inputs": [],
      "name": "fundingRate",
      "outputs": [
        {
          "internalType": "uint256",
          "name": "",
          "type": "uint256"
        }
      ],
      "stateMutability": "view",
      "type": "function"
    },
    {
      "inputs": [
        {
          "internalType": "address",
          "name": "trader",
          "type": "address"
        }
      ],
      "name": "getCollateralBalance",
      "outputs": [
        {
          "internalType": "uint256",
          "name": "",
          "type": "uint256"
        }
      ],
      "stateMutability": "view",
      "type": "function"
    },
    {
      "inputs": [],
      "name": "getETHUSD",
      "outputs": [
        {
          "internalType": "int256",
          "name": "",
          "type": "int256"
        }
      ],
      "stateMutability": "view",
      "type": "function"
    },
    {
      "inputs": [],
      "name": "getFundingRate",
      "outputs": [
        {
          "internalType": "uint256",
          "name": "",
          "type": "uint256"
        }
      ],
      "stateMutability": "view",
      "type": "function"
    },
    {
      "inputs": [],
      "name": "getLastFundingTime",
      "outputs": [
        {
          "internalType": "uint256",
          "name": "",
          "type": "uint256"
        }
      ],
      "stateMutability": "view",
      "type": "function"
    },
    {
      "inputs": [],
      "name": "getOwner",
      "outputs": [
        {
          "internalType": "address",
          "name": "",
          "type": "address"
        }
      ],
      "stateMutability": "view",
      "type": "function"
    },
    {
      "inputs": [
        {
          "internalType": "address",
          "name": "trader",
          "type": "address"
        }
      ],
      "name": "getPositionData",
      "outputs": [
        {
          "internalType": "uint256",
          "name": "entryPrice",
          "type": "uint256"
        },
        {
          "internalType": "uint256",
          "name": "size",
          "type": "uint256"
        },
        {
          "internalType": "bool",
          "name": "isLong",
          "type": "bool"
        }
      ],
      "stateMutability": "view",
      "type": "function"
    },
    {
      "inputs": [],
      "name": "getPricePerETH",
      "outputs": [
        {
          "internalType": "uint256",
          "name": "",
          "type": "uint256"
        }
      ],
      "stateMutability": "view",
      "type": "function"
    },
    {
      "inputs": [],
      "name": "getVaultAddress",
      "outputs": [
        {
          "internalType": "address",
          "name": "",
          "type": "address"
        }
      ],
      "stateMutability": "view",
      "type": "function"
    },
    {
      "inputs": [],
      "name": "lastFundingTime",
      "outputs": [
        {
          "internalType": "uint256",
          "name": "",
          "type": "uint256"
        }
      ],
      "stateMutability": "view",
      "type": "function"
    },
    {
      "inputs": [
        {
          "internalType": "bool",
          "name": "isLong",
          "type": "bool"
        },
        {
          "internalType": "uint256",
          "name": "entryPrice",
          "type": "uint256"
        },
        {
          "internalType": "uint256",
          "name": "size",
          "type": "uint256"
        }
      ],
      "name": "openPosition",
      "outputs": [],
      "stateMutability": "nonpayable",
      "type": "function"
    },
    {
      "inputs": [],
      "name": "owner",
      "outputs": [
        {
          "internalType": "address",
          "name": "",
          "type": "address"
        }
      ],
      "stateMutability": "view",
      "type": "function"
    },
    {
      "inputs": [
        {
          "internalType": "address",
          "name": "",
          "type": "address"
        }
      ],
      "name": "positions",
      "outputs": [
        {
          "internalType": "address",
          "name": "trader",
          "type": "address"
        },
        {
          "internalType": "uint256",
          "name": "entryPrice",
          "type": "uint256"
        },
        {
          "internalType": "uint256",
          "name": "size",
          "type": "uint256"
        },
        {
          "internalType": "bool",
          "name": "isLong",
          "type": "bool"
        }
      ],
      "stateMutability": "view",
      "type": "function"
    },
    {
      "inputs": [],
      "name": "pricePerETH",
      "outputs": [
        {
          "internalType": "uint256",
          "name": "",
          "type": "uint256"
        }
      ],
      "stateMutability": "view",
      "type": "function"
    },
    {
      "inputs": [
        {
          "internalType": "uint256",
          "name": "_rate",
          "type": "uint256"
        }
      ],
      "name": "setFundingRate",
      "outputs": [],
      "stateMutability": "nonpayable",
      "type": "function"
    },
    {
      "inputs": [
        {
          "internalType": "address",
          "name": "newVaultAddress",
          "type": "address"
        }
      ],
      "name": "setVaultAddress",
      "outputs": [],
      "stateMutability": "nonpayable",
      "type": "function"
    },
    {
      "inputs": [],
      "name": "updatePrice",
      "outputs": [],
      "stateMutability": "nonpayable",
      "type": "function"
    },
    {
      "inputs": [],
      "name": "vault",
      "outputs": [
        {
          "internalType": "contract Vault",
          "name": "",
          "type": "address"
        }
      ],
      "stateMutability": "view",
      "type": "function"
    },
    {
      "inputs": [],
      "name": "withdraw",
      "outputs": [],
      "stateMutability": "nonpayable",
      "type": "function"
    },
    {
      "inputs": [
        {
          "internalType": "uint256",
          "name": "amount",
          "type": "uint256"
        }
      ],
      "name": "withdrawFees",
      "outputs": [],
      "stateMutability": "nonpayable",
      "type": "function"
    }
  ],
  "bytecode": "0x60806040523480156200001157600080fd5b5060405162001cfa38038062001cfa83398181016040528101906200003791906200017e565b336000806101000a81548173ffffffffffffffffffffffffffffffffffffffff021916908373ffffffffffffffffffffffffffffffffffffffff16021790555080600160006101000a81548173ffffffffffffffffffffffffffffffffffffffff021916908373ffffffffffffffffffffffffffffffffffffffff160217905550735f4ec3df9cbd43714fe2740f5e3616155c5b8419600260006101000a81548173ffffffffffffffffffffffffffffffffffffffff021916908373ffffffffffffffffffffffffffffffffffffffff16021790555050620001b0565b600080fd5b600073ffffffffffffffffffffffffffffffffffffffff82169050919050565b6000620001468262000119565b9050919050565b620001588162000139565b81146200016457600080fd5b50565b60008151905062000178816200014d565b92915050565b60006020828403121562000197576200019662000114565b5b6000620001a78482850162000167565b91505092915050565b611b3a80620001c06000396000f3fe6080604052600436106101405760003560e01c80636f758140116100b6578063a5fdc5de1161006f578063a5fdc5de1461040e578063c393d0e31461044b578063d4d31c7f14610462578063dd0f8d2d1461048d578063e3255731146104b6578063fbfa77cf146104df57610140565b80636f7581401461032f57806385535cc514610339578063893d20e8146103625780638da5cb5b1461038d57806395196f7e146103b857806396c38294146103e357610140565b806341d3c84c1161010857806341d3c84c1461022e57806355f57510146102595780635e318e07146102995780635f281bfb146102c257806365cacaa4146102ed578063673a7e281461031857610140565b806313d1eaf4146101455780632703ee8514610170578063321d7fa9146101ad5780633b04393b146101d85780633ccfd60b14610217575b600080fd5b34801561015157600080fd5b5061015a61050a565b60405161016791906110fa565b60405180910390f35b34801561017c57600080fd5b5061019760048036038101906101929190611178565b610514565b6040516101a491906110fa565b60405180910390f35b3480156101b957600080fd5b506101c261055d565b6040516101cf91906110fa565b60405180910390f35b3480156101e457600080fd5b506101ff60048036038101906101fa9190611178565b610563565b60405161020e939291906111c0565b60405180910390f35b34801561022357600080fd5b5061022c6105d4565b005b34801561023a57600080fd5b50610243610754565b60405161025091906110fa565b60405180910390f35b34801561026557600080fd5b50610280600480360381019061027b9190611178565b61075a565b6040516102909493929190611206565b60405180910390f35b3480156102a557600080fd5b506102c060048036038101906102bb9190611277565b6107b7565b005b3480156102ce57600080fd5b506102d7610848565b6040516102e491906110fa565b60405180910390f35b3480156102f957600080fd5b5061030261084e565b60405161030f91906112a4565b60405180910390f35b34801561032457600080fd5b5061032d610878565b005b610337610883565b005b34801561034557600080fd5b50610360600480360381019061035b9190611178565b61091e565b005b34801561036e57600080fd5b506103776109f0565b60405161038491906112a4565b60405180910390f35b34801561039957600080fd5b506103a2610a19565b6040516103af91906112a4565b60405180910390f35b3480156103c457600080fd5b506103cd610a3d565b6040516103da91906110fa565b60405180910390f35b3480156103ef57600080fd5b506103f8610a47565b60405161040591906112d8565b60405180910390f35b34801561041a57600080fd5b5061043560048036038101906104309190611178565b610ae8565b60405161044291906110fa565b60405180910390f35b34801561045757600080fd5b50610460610b00565b005b34801561046e57600080fd5b50610477610d97565b60405161048491906110fa565b60405180910390f35b34801561049957600080fd5b506104b460048036038101906104af9190611277565b610da1565b005b3480156104c257600080fd5b506104dd60048036038101906104d8919061131f565b610e39565b005b3480156104eb57600080fd5b506104f46110bb565b60405161050191906113d1565b60405180910390f35b6000600354905090565b6000600760008373ffffffffffffffffffffffffffffffffffffffff1673ffffffffffffffffffffffffffffffffffffffff168152602001908152602001600020549050919050565b60055481565b600080600080600660008673ffffffffffffffffffffffffffffffffffffffff1673ffffffffffffffffffffffffffffffffffffffff1681526020019081526020016000209050806001015481600201548260030160009054906101000a900460ff16935093509350509193909250565b6000600760003373ffffffffffffffffffffffffffffffffffffffff1673ffffffffffffffffffffffffffffffffffffffff1681526020019081526020016000205411610656576040517f08c379a000000000000000000000000000000000000000000000000000000000815260040161064d90611449565b60405180910390fd5b6000610660610a47565b905060008190506000600354600760003373ffffffffffffffffffffffffffffffffffffffff1673ffffffffffffffffffffffffffffffffffffffff16815260200190815260200160002054836106b79190611498565b6106c19190611509565b90506000600760003373ffffffffffffffffffffffffffffffffffffffff1673ffffffffffffffffffffffffffffffffffffffff168152602001908152602001600020819055503373ffffffffffffffffffffffffffffffffffffffff166108fc829081150290604051600060405180830381858888f1935050505015801561074e573d6000803e3d6000fd5b50505050565b60045481565b60066020528060005260406000206000915090508060000160009054906101000a900473ffffffffffffffffffffffffffffffffffffffff16908060010154908060020154908060030160009054906101000a900460ff16905084565b60008054906101000a900473ffffffffffffffffffffffffffffffffffffffff1673ffffffffffffffffffffffffffffffffffffffff163373ffffffffffffffffffffffffffffffffffffffff1614610845576040517f08c379a000000000000000000000000000000000000000000000000000000000815260040161083c906115ac565b60405180910390fd5b50565b60035481565b6000600160009054906101000a900473ffffffffffffffffffffffffffffffffffffffff16905090565b610fa0600381905550565b600034116108c6576040517f08c379a00000000000000000000000000000000000000000000000000000000081526004016108bd9061163e565b60405180910390fd5b34600760003373ffffffffffffffffffffffffffffffffffffffff1673ffffffffffffffffffffffffffffffffffffffff1681526020019081526020016000206000828254610915919061165e565b92505081905550565b60008054906101000a900473ffffffffffffffffffffffffffffffffffffffff1673ffffffffffffffffffffffffffffffffffffffff163373ffffffffffffffffffffffffffffffffffffffff16146109ac576040517f08c379a00000000000000000000000000000000000000000000000000000000081526004016109a390611704565b60405180910390fd5b80600160006101000a81548173ffffffffffffffffffffffffffffffffffffffff021916908373ffffffffffffffffffffffffffffffffffffffff16021790555050565b60008060009054906101000a900473ffffffffffffffffffffffffffffffffffffffff16905090565b60008054906101000a900473ffffffffffffffffffffffffffffffffffffffff1681565b6000600454905090565b600080600260009054906101000a900473ffffffffffffffffffffffffffffffffffffffff1673ffffffffffffffffffffffffffffffffffffffff1663feaf968c6040518163ffffffff1660e01b815260040160a060405180830381865afa158015610ab7573d6000803e3d6000fd5b505050506040513d601f19601f82011682018060405250810190610adb91906117a7565b5050509150508091505090565b60076020528060005260406000206000915090505481565b6000600660003373ffffffffffffffffffffffffffffffffffffffff1673ffffffffffffffffffffffffffffffffffffffff16815260200190815260200160002090503373ffffffffffffffffffffffffffffffffffffffff168160000160009054906101000a900473ffffffffffffffffffffffffffffffffffffffff1673ffffffffffffffffffffffffffffffffffffffff1614610bd5576040517f08c379a0000000000000000000000000000000000000000000000000000000008152600401610bcc9061186e565b60405180910390fd5b6000610bdf610a47565b9050600081905060008360020154846001015483610bfd919061188e565b610c079190611498565b90508360030160009054906101000a900460ff1615610c69576000811015610c64576040517f08c379a0000000000000000000000000000000000000000000000000000000008152600401610c5b9061190e565b60405180910390fd5b610cae565b6000811115610cad576040517f08c379a0000000000000000000000000000000000000000000000000000000008152600401610ca49061197a565b60405180910390fd5b5b80600760003373ffffffffffffffffffffffffffffffffffffffff1673ffffffffffffffffffffffffffffffffffffffff1681526020019081526020016000206000828254610cfd919061165e565b92505081905550600660003373ffffffffffffffffffffffffffffffffffffffff1673ffffffffffffffffffffffffffffffffffffffff168152602001908152602001600020600080820160006101000a81549073ffffffffffffffffffffffffffffffffffffffff0219169055600182016000905560028201600090556003820160006101000a81549060ff0219169055505050505050565b6000600554905090565b60008054906101000a900473ffffffffffffffffffffffffffffffffffffffff1673ffffffffffffffffffffffffffffffffffffffff163373ffffffffffffffffffffffffffffffffffffffff1614610e2f576040517f08c379a0000000000000000000000000000000000000000000000000000000008152600401610e26906115ac565b60405180910390fd5b8060048190555050565b60008111610e7c576040517f08c379a0000000000000000000000000000000000000000000000000000000008152600401610e73906119e6565b60405180910390fd5b60008211610ebf576040517f08c379a0000000000000000000000000000000000000000000000000000000008152600401610eb690611a78565b60405180910390fd5b8082610ecb9190611498565b600760003373ffffffffffffffffffffffffffffffffffffffff1673ffffffffffffffffffffffffffffffffffffffff168152602001908152602001600020541015610f4c576040517f08c379a0000000000000000000000000000000000000000000000000000000008152600401610f4390611ae4565b60405180910390fd5b8082610f589190611498565b600760003373ffffffffffffffffffffffffffffffffffffffff1673ffffffffffffffffffffffffffffffffffffffff1681526020019081526020016000206000828254610fa6919061188e565b925050819055506000610fb7610a47565b9050600081905060405180608001604052803373ffffffffffffffffffffffffffffffffffffffff168152602001828152602001848152602001861515815250600660003373ffffffffffffffffffffffffffffffffffffffff1673ffffffffffffffffffffffffffffffffffffffff16815260200190815260200160002060008201518160000160006101000a81548173ffffffffffffffffffffffffffffffffffffffff021916908373ffffffffffffffffffffffffffffffffffffffff160217905550602082015181600101556040820151816002015560608201518160030160006101000a81548160ff0219169083151502179055509050505050505050565b600160009054906101000a900473ffffffffffffffffffffffffffffffffffffffff1681565b6000819050919050565b6110f4816110e1565b82525050565b600060208201905061110f60008301846110eb565b92915050565b600080fd5b600073ffffffffffffffffffffffffffffffffffffffff82169050919050565b60006111458261111a565b9050919050565b6111558161113a565b811461116057600080fd5b50565b6000813590506111728161114c565b92915050565b60006020828403121561118e5761118d611115565b5b600061119c84828501611163565b91505092915050565b60008115159050919050565b6111ba816111a5565b82525050565b60006060820190506111d560008301866110eb565b6111e260208301856110eb565b6111ef60408301846111b1565b949350505050565b6112008161113a565b82525050565b600060808201905061121b60008301876111f7565b61122860208301866110eb565b61123560408301856110eb565b61124260608301846111b1565b95945050505050565b611254816110e1565b811461125f57600080fd5b50565b6000813590506112718161124b565b92915050565b60006020828403121561128d5761128c611115565b5b600061129b84828501611262565b91505092915050565b60006020820190506112b960008301846111f7565b92915050565b6000819050919050565b6112d2816112bf565b82525050565b60006020820190506112ed60008301846112c9565b92915050565b6112fc816111a5565b811461130757600080fd5b50565b600081359050611319816112f3565b92915050565b60008060006060848603121561133857611337611115565b5b60006113468682870161130a565b935050602061135786828701611262565b925050604061136886828701611262565b9150509250925092565b6000819050919050565b600061139761139261138d8461111a565b611372565b61111a565b9050919050565b60006113a98261137c565b9050919050565b60006113bb8261139e565b9050919050565b6113cb816113b0565b82525050565b60006020820190506113e660008301846113c2565b92915050565b600082825260208201905092915050565b7f4e6f20636f6c6c61746572616c20746f20776974686472617700000000000000600082015250565b60006114336019836113ec565b915061143e826113fd565b602082019050919050565b6000602082019050818103600083015261146281611426565b9050919050565b7f4e487b7100000000000000000000000000000000000000000000000000000000600052601160045260246000fd5b60006114a3826110e1565b91506114ae836110e1565b92508282026114bc816110e1565b915082820484148315176114d3576114d2611469565b5b5092915050565b7f4e487b7100000000000000000000000000000000000000000000000000000000600052601260045260246000fd5b6000611514826110e1565b915061151f836110e1565b92508261152f5761152e6114da565b5b828204905092915050565b7f4f6e6c7920746865206f776e65722063616e2063616c6c20746869732066756e60008201527f6374696f6e000000000000000000000000000000000000000000000000000000602082015250565b60006115966025836113ec565b91506115a18261153a565b604082019050919050565b600060208201905081810360008301526115c581611589565b9050919050565b7f436f6c6c61746572616c206d7573742062652067726561746572207468616e2060008201527f3000000000000000000000000000000000000000000000000000000000000000602082015250565b60006116286021836113ec565b9150611633826115cc565b604082019050919050565b600060208201905081810360008301526116578161161b565b9050919050565b6000611669826110e1565b9150611674836110e1565b925082820190508082111561168c5761168b611469565b5b92915050565b7f4f6e6c7920746865206f776e65722063616e2073657420746865205661756c7460008201527f2061646472657373000000000000000000000000000000000000000000000000602082015250565b60006116ee6028836113ec565b91506116f982611692565b604082019050919050565b6000602082019050818103600083015261171d816116e1565b9050919050565b600069ffffffffffffffffffff82169050919050565b61174381611724565b811461174e57600080fd5b50565b6000815190506117608161173a565b92915050565b61176f816112bf565b811461177a57600080fd5b50565b60008151905061178c81611766565b92915050565b6000815190506117a18161124b565b92915050565b600080600080600060a086880312156117c3576117c2611115565b5b60006117d188828901611751565b95505060206117e28882890161177d565b94505060406117f388828901611792565b935050606061180488828901611792565b925050608061181588828901611751565b9150509295509295909350565b7f4e6f20706f736974696f6e20666f756e64000000000000000000000000000000600082015250565b60006118586011836113ec565b915061186382611822565b602082019050919050565b600060208201905081810360008301526118878161184b565b9050919050565b6000611899826110e1565b91506118a4836110e1565b92508282039050818111156118bc576118bb611469565b5b92915050565b7f4c6f7373206f6e206c6f6e6720706f736974696f6e0000000000000000000000600082015250565b60006118f86015836113ec565b9150611903826118c2565b602082019050919050565b60006020820190508181036000830152611927816118eb565b9050919050565b7f4c6f7373206f6e2073686f727420706f736974696f6e00000000000000000000600082015250565b60006119646016836113ec565b915061196f8261192e565b602082019050919050565b6000602082019050818103600083015261199381611957565b9050919050565b7f53697a65206d7573742062652067726561746572207468616e20300000000000600082015250565b60006119d0601b836113ec565b91506119db8261199a565b602082019050919050565b600060208201905081810360008301526119ff816119c3565b9050919050565b7f456e747279207072696365206d7573742062652067726561746572207468616e60008201527f2030000000000000000000000000000000000000000000000000000000000000602082015250565b6000611a626022836113ec565b9150611a6d82611a06565b604082019050919050565b60006020820190508181036000830152611a9181611a55565b9050919050565b7f496e73756666696369656e7420636f6c6c61746572616c000000000000000000600082015250565b6000611ace6017836113ec565b9150611ad982611a98565b602082019050919050565b60006020820190508181036000830152611afd81611ac1565b905091905056fea264697066735822122051545231970f27297b963ab70734e2e0db8ccc1f308cf95d2ccd08ee84d13a8964736f6c63430008150033",
  "linkReferences": {},
  "deployedLinkReferences": {}
}