{
  "_format": "hh-sol-artifact-1",
  "contractName": "Vault",
  "sourceName": "contracts/Vault.sol",
  "abi": [
    {
      "inputs": [
        {
          "internalType": "contract IERC20",
          "name": "_asset",
          "type": "address"
        },
        {
          "internalType": "uint256",
          "name": "_entryBasisPoints",
          "type": "uint256"
        },
        {
          "internalType": "uint256",
          "name": "_exitBasisPoints",
          "type": "uint256"
        },
        {
          "internalType": "uint32",
          "name": "_duration",
          "type": "uint32"
        }
      ],
      "stateMutability": "nonpayable",
      "type": "constructor"
    },
    {
      "inputs": [
        {
          "internalType": "address",
          "name": "target",
          "type": "address"
        }
      ],
      "name": "AddressEmptyCode",
      "type": "error"
    },
    {
      "inputs": [
        {
          "internalType": "address",
          "name": "account",
          "type": "address"
        }
      ],
      "name": "AddressInsufficientBalance",
      "type": "error"
    },
    {
      "inputs": [
        {
          "internalType": "address",
          "name": "spender",
          "type": "address"
        },
        {
          "internalType": "uint256",
          "name": "allowance",
          "type": "uint256"
        },
        {
          "internalType": "uint256",
          "name": "needed",
          "type": "uint256"
        }
      ],
      "name": "ERC20InsufficientAllowance",
      "type": "error"
    },
    {
      "inputs": [
        {
          "internalType": "address",
          "name": "sender",
          "type": "address"
        },
        {
          "internalType": "uint256",
          "name": "balance",
          "type": "uint256"
        },
        {
          "internalType": "uint256",
          "name": "needed",
          "type": "uint256"
        }
      ],
      "name": "ERC20InsufficientBalance",
      "type": "error"
    },
    {
      "inputs": [
        {
          "internalType": "address",
          "name": "approver",
          "type": "address"
        }
      ],
      "name": "ERC20InvalidApprover",
      "type": "error"
    },
    {
      "inputs": [
        {
          "internalType": "address",
          "name": "receiver",
          "type": "address"
        }
      ],
      "name": "ERC20InvalidReceiver",
      "type": "error"
    },
    {
      "inputs": [
        {
          "internalType": "address",
          "name": "sender",
          "type": "address"
        }
      ],
      "name": "ERC20InvalidSender",
      "type": "error"
    },
    {
      "inputs": [
        {
          "internalType": "address",
          "name": "spender",
          "type": "address"
        }
      ],
      "name": "ERC20InvalidSpender",
      "type": "error"
    },
    {
      "inputs": [
        {
          "internalType": "address",
          "name": "receiver",
          "type": "address"
        },
        {
          "internalType": "uint256",
          "name": "assets",
          "type": "uint256"
        },
        {
          "internalType": "uint256",
          "name": "max",
          "type": "uint256"
        }
      ],
      "name": "ERC4626ExceededMaxDeposit",
      "type": "error"
    },
    {
      "inputs": [
        {
          "internalType": "address",
          "name": "receiver",
          "type": "address"
        },
        {
          "internalType": "uint256",
          "name": "shares",
          "type": "uint256"
        },
        {
          "internalType": "uint256",
          "name": "max",
          "type": "uint256"
        }
      ],
      "name": "ERC4626ExceededMaxMint",
      "type": "error"
    },
    {
      "inputs": [
        {
          "internalType": "address",
          "name": "owner",
          "type": "address"
        },
        {
          "internalType": "uint256",
          "name": "shares",
          "type": "uint256"
        },
        {
          "internalType": "uint256",
          "name": "max",
          "type": "uint256"
        }
      ],
      "name": "ERC4626ExceededMaxRedeem",
      "type": "error"
    },
    {
      "inputs": [
        {
          "internalType": "address",
          "name": "owner",
          "type": "address"
        },
        {
          "internalType": "uint256",
          "name": "assets",
          "type": "uint256"
        },
        {
          "internalType": "uint256",
          "name": "max",
          "type": "uint256"
        }
      ],
      "name": "ERC4626ExceededMaxWithdraw",
      "type": "error"
    },
    {
      "inputs": [],
      "name": "FailedInnerCall",
      "type": "error"
    },
    {
      "inputs": [],
      "name": "MathOverflowedMulDiv",
      "type": "error"
    },
    {
      "inputs": [
        {
          "internalType": "address",
          "name": "owner",
          "type": "address"
        }
      ],
      "name": "OwnableInvalidOwner",
      "type": "error"
    },
    {
      "inputs": [
        {
          "internalType": "address",
          "name": "account",
          "type": "address"
        }
      ],
      "name": "OwnableUnauthorizedAccount",
      "type": "error"
    },
    {
      "inputs": [
        {
          "internalType": "address",
          "name": "token",
          "type": "address"
        }
      ],
      "name": "SafeERC20FailedOperation",
      "type": "error"
    },
    {
      "anonymous": false,
      "inputs": [
        {
          "indexed": true,
          "internalType": "address",
          "name": "owner",
          "type": "address"
        },
        {
          "indexed": true,
          "internalType": "address",
          "name": "spender",
          "type": "address"
        },
        {
          "indexed": false,
          "internalType": "uint256",
          "name": "value",
          "type": "uint256"
        }
      ],
      "name": "Approval",
      "type": "event"
    },
    {
      "anonymous": false,
      "inputs": [
        {
          "indexed": true,
          "internalType": "address",
          "name": "sender",
          "type": "address"
        },
        {
          "indexed": true,
          "internalType": "address",
          "name": "owner",
          "type": "address"
        },
        {
          "indexed": false,
          "internalType": "uint256",
          "name": "assets",
          "type": "uint256"
        },
        {
          "indexed": false,
          "internalType": "uint256",
          "name": "shares",
          "type": "uint256"
        }
      ],
      "name": "Deposit",
      "type": "event"
    },
    {
      "anonymous": false,
      "inputs": [
        {
          "indexed": true,
          "internalType": "address",
          "name": "previousOwner",
          "type": "address"
        },
        {
          "indexed": true,
          "internalType": "address",
          "name": "newOwner",
          "type": "address"
        }
      ],
      "name": "OwnershipTransferred",
      "type": "event"
    },
    {
      "anonymous": false,
      "inputs": [
        {
          "indexed": true,
          "internalType": "address",
          "name": "from",
          "type": "address"
        },
        {
          "indexed": true,
          "internalType": "address",
          "name": "to",
          "type": "address"
        },
        {
          "indexed": false,
          "internalType": "uint256",
          "name": "value",
          "type": "uint256"
        }
      ],
      "name": "Transfer",
      "type": "event"
    },
    {
      "anonymous": false,
      "inputs": [
        {
          "indexed": true,
          "internalType": "address",
          "name": "sender",
          "type": "address"
        },
        {
          "indexed": true,
          "internalType": "address",
          "name": "receiver",
          "type": "address"
        },
        {
          "indexed": true,
          "internalType": "address",
          "name": "owner",
          "type": "address"
        },
        {
          "indexed": false,
          "internalType": "uint256",
          "name": "assets",
          "type": "uint256"
        },
        {
          "indexed": false,
          "internalType": "uint256",
          "name": "shares",
          "type": "uint256"
        }
      ],
      "name": "Withdraw",
      "type": "event"
    },
    {
      "inputs": [
        {
          "internalType": "address",
          "name": "owner",
          "type": "address"
        },
        {
          "internalType": "address",
          "name": "spender",
          "type": "address"
        }
      ],
      "name": "allowance",
      "outputs": [
        {
          "internalType": "uint256",
          "name": "",
          "type": "uint256"
        }
      ],
      "stateMutability": "view",
      "type": "function"
    },
    {
      "inputs": [
        {
          "internalType": "address",
          "name": "spender",
          "type": "address"
        },
        {
          "internalType": "uint256",
          "name": "value",
          "type": "uint256"
        }
      ],
      "name": "approve",
      "outputs": [
        {
          "internalType": "bool",
          "name": "",
          "type": "bool"
        }
      ],
      "stateMutability": "nonpayable",
      "type": "function"
    },
    {
      "inputs": [],
      "name": "asset",
      "outputs": [
        {
          "internalType": "address",
          "name": "",
          "type": "address"
        }
      ],
      "stateMutability": "view",
      "type": "function"
    },
    {
      "inputs": [
        {
          "internalType": "address",
          "name": "account",
          "type": "address"
        }
      ],
      "name": "balanceOf",
      "outputs": [
        {
          "internalType": "uint256",
          "name": "",
          "type": "uint256"
        }
      ],
      "stateMutability": "view",
      "type": "function"
    },
    {
      "inputs": [
        {
          "internalType": "uint256",
          "name": "_fee",
          "type": "uint256"
        }
      ],
      "name": "changeEntryFee",
      "outputs": [],
      "stateMutability": "nonpayable",
      "type": "function"
    },
    {
      "inputs": [
        {
          "internalType": "uint256",
          "name": "_fee",
          "type": "uint256"
        }
      ],
      "name": "changeExitFee",
      "outputs": [],
      "stateMutability": "nonpayable",
      "type": "function"
    },
    {
      "inputs": [
        {
          "internalType": "uint256",
          "name": "shares",
          "type": "uint256"
        }
      ],
      "name": "convertToAssets",
      "outputs": [
        {
          "internalType": "uint256",
          "name": "",
          "type": "uint256"
        }
      ],
      "stateMutability": "view",
      "type": "function"
    },
    {
      "inputs": [
        {
          "internalType": "uint256",
          "name": "assets",
          "type": "uint256"
        }
      ],
      "name": "convertToShares",
      "outputs": [
        {
          "internalType": "uint256",
          "name": "",
          "type": "uint256"
        }
      ],
      "stateMutability": "view",
      "type": "function"
    },
    {
      "inputs": [],
      "name": "decimals",
      "outputs": [
        {
          "internalType": "uint8",
          "name": "",
          "type": "uint8"
        }
      ],
      "stateMutability": "view",
      "type": "function"
    },
    {
      "inputs": [
        {
          "internalType": "uint256",
          "name": "assets",
          "type": "uint256"
        },
        {
          "internalType": "address",
          "name": "receiver",
          "type": "address"
        }
      ],
      "name": "deposit",
      "outputs": [
        {
          "internalType": "uint256",
          "name": "",
          "type": "uint256"
        }
      ],
      "stateMutability": "nonpayable",
      "type": "function"
    },
    {
      "inputs": [],
      "name": "entryFeeBasisPoints",
      "outputs": [
        {
          "internalType": "uint256",
          "name": "",
          "type": "uint256"
        }
      ],
      "stateMutability": "view",
      "type": "function"
    },
    {
      "inputs": [],
      "name": "exitFeeBasisPoints",
      "outputs": [
        {
          "internalType": "uint256",
          "name": "",
          "type": "uint256"
        }
      ],
      "stateMutability": "view",
      "type": "function"
    },
    {
      "inputs": [],
      "name": "getWithdrawEpoch",
      "outputs": [
        {
          "internalType": "uint32",
          "name": "",
          "type": "uint32"
        }
      ],
      "stateMutability": "view",
      "type": "function"
    },
    {
      "inputs": [
        {
          "internalType": "address",
          "name": "",
          "type": "address"
        }
      ],
      "name": "maxDeposit",
      "outputs": [
        {
          "internalType": "uint256",
          "name": "",
          "type": "uint256"
        }
      ],
      "stateMutability": "view",
      "type": "function"
    },
    {
      "inputs": [
        {
          "internalType": "address",
          "name": "",
          "type": "address"
        }
      ],
      "name": "maxMint",
      "outputs": [
        {
          "internalType": "uint256",
          "name": "",
          "type": "uint256"
        }
      ],
      "stateMutability": "view",
      "type": "function"
    },
    {
      "inputs": [
        {
          "internalType": "address",
          "name": "owner",
          "type": "address"
        }
      ],
      "name": "maxRedeem",
      "outputs": [
        {
          "internalType": "uint256",
          "name": "",
          "type": "uint256"
        }
      ],
      "stateMutability": "view",
      "type": "function"
    },
    {
      "inputs": [
        {
          "internalType": "address",
          "name": "owner",
          "type": "address"
        }
      ],
      "name": "maxWithdraw",
      "outputs": [
        {
          "internalType": "uint256",
          "name": "",
          "type": "uint256"
        }
      ],
      "stateMutability": "view",
      "type": "function"
    },
    {
      "inputs": [
        {
          "internalType": "uint256",
          "name": "shares",
          "type": "uint256"
        },
        {
          "internalType": "address",
          "name": "receiver",
          "type": "address"
        }
      ],
      "name": "mint",
      "outputs": [
        {
          "internalType": "uint256",
          "name": "",
          "type": "uint256"
        }
      ],
      "stateMutability": "nonpayable",
      "type": "function"
    },
    {
      "inputs": [],
      "name": "name",
      "outputs": [
        {
          "internalType": "string",
          "name": "",
          "type": "string"
        }
      ],
      "stateMutability": "view",
      "type": "function"
    },
    {
      "inputs": [],
      "name": "owner",
      "outputs": [
        {
          "internalType": "address",
          "name": "",
          "type": "address"
        }
      ],
      "stateMutability": "view",
      "type": "function"
    },
    {
      "inputs": [
        {
          "internalType": "uint256",
          "name": "assets",
          "type": "uint256"
        }
      ],
      "name": "previewDeposit",
      "outputs": [
        {
          "internalType": "uint256",
          "name": "",
          "type": "uint256"
        }
      ],
      "stateMutability": "view",
      "type": "function"
    },
    {
      "inputs": [
        {
          "internalType": "uint256",
          "name": "shares",
          "type": "uint256"
        }
      ],
      "name": "previewMint",
      "outputs": [
        {
          "internalType": "uint256",
          "name": "",
          "type": "uint256"
        }
      ],
      "stateMutability": "view",
      "type": "function"
    },
    {
      "inputs": [
        {
          "internalType": "uint256",
          "name": "shares",
          "type": "uint256"
        }
      ],
      "name": "previewRedeem",
      "outputs": [
        {
          "internalType": "uint256",
          "name": "",
          "type": "uint256"
        }
      ],
      "stateMutability": "view",
      "type": "function"
    },
    {
      "inputs": [
        {
          "internalType": "uint256",
          "name": "assets",
          "type": "uint256"
        }
      ],
      "name": "previewWithdraw",
      "outputs": [
        {
          "internalType": "uint256",
          "name": "",
          "type": "uint256"
        }
      ],
      "stateMutability": "view",
      "type": "function"
    },
    {
      "inputs": [
        {
          "internalType": "uint256",
          "name": "shares",
          "type": "uint256"
        },
        {
          "internalType": "address",
          "name": "receiver",
          "type": "address"
        },
        {
          "internalType": "address",
          "name": "owner",
          "type": "address"
        }
      ],
      "name": "redeem",
      "outputs": [
        {
          "internalType": "uint256",
          "name": "",
          "type": "uint256"
        }
      ],
      "stateMutability": "nonpayable",
      "type": "function"
    },
    {
      "inputs": [],
      "name": "renounceOwnership",
      "outputs": [],
      "stateMutability": "nonpayable",
      "type": "function"
    },
    {
      "inputs": [
        {
          "internalType": "uint32",
          "name": "_duration",
          "type": "uint32"
        }
      ],
      "name": "setDuration",
      "outputs": [],
      "stateMutability": "nonpayable",
      "type": "function"
    },
    {
      "inputs": [],
      "name": "stakeDuration",
      "outputs": [
        {
          "internalType": "uint32",
          "name": "",
          "type": "uint32"
        }
      ],
      "stateMutability": "view",
      "type": "function"
    },
    {
      "inputs": [
        {
          "internalType": "address",
          "name": "lender",
          "type": "address"
        }
      ],
      "name": "stakeTimeEpochMapping",
      "outputs": [
        {
          "internalType": "uint32",
          "name": "epoch",
          "type": "uint32"
        }
      ],
      "stateMutability": "view",
      "type": "function"
    },
    {
      "inputs": [],
      "name": "symbol",
      "outputs": [
        {
          "internalType": "string",
          "name": "",
          "type": "string"
        }
      ],
      "stateMutability": "view",
      "type": "function"
    },
    {
      "inputs": [],
      "name": "totalAssets",
      "outputs": [
        {
          "internalType": "uint256",
          "name": "",
          "type": "uint256"
        }
      ],
      "stateMutability": "view",
      "type": "function"
    },
    {
      "inputs": [],
      "name": "totalSupply",
      "outputs": [
        {
          "internalType": "uint256",
          "name": "",
          "type": "uint256"
        }
      ],
      "stateMutability": "view",
      "type": "function"
    },
    {
      "inputs": [
        {
          "internalType": "address",
          "name": "to",
          "type": "address"
        },
        {
          "internalType": "uint256",
          "name": "value",
          "type": "uint256"
        }
      ],
      "name": "transfer",
      "outputs": [
        {
          "internalType": "bool",
          "name": "",
          "type": "bool"
        }
      ],
      "stateMutability": "nonpayable",
      "type": "function"
    },
    {
      "inputs": [
        {
          "internalType": "address",
          "name": "from",
          "type": "address"
        },
        {
          "internalType": "address",
          "name": "to",
          "type": "address"
        },
        {
          "internalType": "uint256",
          "name": "value",
          "type": "uint256"
        }
      ],
      "name": "transferFrom",
      "outputs": [
        {
          "internalType": "bool",
          "name": "",
          "type": "bool"
        }
      ],
      "stateMutability": "nonpayable",
      "type": "function"
    },
    {
      "inputs": [
        {
          "internalType": "address",
          "name": "newOwner",
          "type": "address"
        }
      ],
      "name": "transferOwnership",
      "outputs": [],
      "stateMutability": "nonpayable",
      "type": "function"
    },
    {
      "inputs": [
        {
          "internalType": "uint256",
          "name": "assets",
          "type": "uint256"
        },
        {
          "internalType": "address",
          "name": "receiver",
          "type": "address"
        },
        {
          "internalType": "address",
          "name": "owner",
          "type": "address"
        }
      ],
      "name": "withdraw",
      "outputs": [
        {
          "internalType": "uint256",
          "name": "",
          "type": "uint256"
        }
      ],
      "stateMutability": "nonpayable",
      "type": "function"
    }
  ],
  "bytecode": "0x60c06040523480156200001157600080fd5b50604051620036cb380380620036cb8339818101604052810190620000379190620004d5565b828233866040518060400160405280601181526020017f5661756c74204f6365616e20546f6b656e0000000000000000000000000000008152506040518060400160405280600481526020017f764f4354000000000000000000000000000000000000000000000000000000008152508160039081620000b89190620007b7565b508060049081620000ca9190620007b7565b505050600080620000e183620001fb60201b60201c565b9150915081620000f3576012620000f5565b805b60ff1660a08160ff16815250508273ffffffffffffffffffffffffffffffffffffffff1660808173ffffffffffffffffffffffffffffffffffffffff1681525050505050600073ffffffffffffffffffffffffffffffffffffffff168173ffffffffffffffffffffffffffffffffffffffff1603620001ae5760006040517f1e4fbdf7000000000000000000000000000000000000000000000000000000008152600401620001a59190620008af565b60405180910390fd5b620001bf816200031560201b60201c565b508160068190555080600781905550505080600860006101000a81548163ffffffff021916908363ffffffff1602179055505050505062000990565b6000806000808473ffffffffffffffffffffffffffffffffffffffff1660405160240160405160208183030381529060405263313ce56760e01b6020820180517bffffffffffffffffffffffffffffffffffffffffffffffffffffffff838183161783525050505060405162000272919062000945565b600060405180830381855afa9150503d8060008114620002af576040519150601f19603f3d011682016040523d82523d6000602084013e620002b4565b606091505b5091509150818015620002c957506020815110155b156200030657600081806020019051810190620002e791906200095e565b905060ff8016811162000304576001819450945050505062000310565b505b6000809350935050505b915091565b6000600560009054906101000a900473ffffffffffffffffffffffffffffffffffffffff16905081600560006101000a81548173ffffffffffffffffffffffffffffffffffffffff021916908373ffffffffffffffffffffffffffffffffffffffff1602179055508173ffffffffffffffffffffffffffffffffffffffff168173ffffffffffffffffffffffffffffffffffffffff167f8be0079c531659141344cd1fd0a4f28419497f9722a3daafe3b4186f6b6457e060405160405180910390a35050565b600080fd5b600073ffffffffffffffffffffffffffffffffffffffff82169050919050565b60006200040d82620003e0565b9050919050565b6000620004218262000400565b9050919050565b620004338162000414565b81146200043f57600080fd5b50565b600081519050620004538162000428565b92915050565b6000819050919050565b6200046e8162000459565b81146200047a57600080fd5b50565b6000815190506200048e8162000463565b92915050565b600063ffffffff82169050919050565b620004af8162000494565b8114620004bb57600080fd5b50565b600081519050620004cf81620004a4565b92915050565b60008060008060808587031215620004f257620004f1620003db565b5b6000620005028782880162000442565b945050602062000515878288016200047d565b935050604062000528878288016200047d565b92505060606200053b87828801620004be565b91505092959194509250565b600081519050919050565b7f4e487b7100000000000000000000000000000000000000000000000000000000600052604160045260246000fd5b7f4e487b7100000000000000000000000000000000000000000000000000000000600052602260045260246000fd5b60006002820490506001821680620005c957607f821691505b602082108103620005df57620005de62000581565b5b50919050565b60008190508160005260206000209050919050565b60006020601f8301049050919050565b600082821b905092915050565b600060088302620006497fffffffffffffffffffffffffffffffffffffffffffffffffffffffffffffffff826200060a565b6200065586836200060a565b95508019841693508086168417925050509392505050565b6000819050919050565b600062000698620006926200068c8462000459565b6200066d565b62000459565b9050919050565b6000819050919050565b620006b48362000677565b620006cc620006c3826200069f565b84845462000617565b825550505050565b600090565b620006e3620006d4565b620006f0818484620006a9565b505050565b5b8181101562000718576200070c600082620006d9565b600181019050620006f6565b5050565b601f82111562000767576200073181620005e5565b6200073c84620005fa565b810160208510156200074c578190505b620007646200075b85620005fa565b830182620006f5565b50505b505050565b600082821c905092915050565b60006200078c600019846008026200076c565b1980831691505092915050565b6000620007a7838362000779565b9150826002028217905092915050565b620007c28262000547565b67ffffffffffffffff811115620007de57620007dd62000552565b5b620007ea8254620005b0565b620007f78282856200071c565b600060209050601f8311600181146200082f57600084156200081a578287015190505b62000826858262000799565b86555062000896565b601f1984166200083f86620005e5565b60005b82811015620008695784890151825560018201915060208501945060208101905062000842565b8683101562000889578489015162000885601f89168262000779565b8355505b6001600288020188555050505b505050505050565b620008a98162000400565b82525050565b6000602082019050620008c660008301846200089e565b92915050565b600081519050919050565b600081905092915050565b60005b8381101562000902578082015181840152602081019050620008e5565b60008484015250505050565b60006200091b82620008cc565b620009278185620008d7565b935062000939818560208601620008e2565b80840191505092915050565b60006200095382846200090e565b915081905092915050565b600060208284031215620009775762000976620003db565b5b600062000987848285016200047d565b91505092915050565b60805160a051612d00620009cb60003960006109860152600081816107a9015281816109b801528181611b880152611cfb0152612d006000f3fe608060405234801561001057600080fd5b506004361061021c5760003560e01c806395d89b4111610125578063ce96cb77116100ad578063e97add571161007c578063e97add5714610703578063ef5ddcba14610721578063ef8b30f71461073d578063f2fde38b1461076d578063f7d978a2146107895761021c565b8063ce96cb7714610643578063d040542114610673578063d905777e146106a3578063dd62ed3e146106d35761021c565b8063b460af94116100f4578063b460af9414610565578063ba08765214610595578063ba0af7a9146105c5578063c63d75b6146105e3578063c6e6f592146106135761021c565b806395d89b41146104cb5780639732e720146104e9578063a9059cbb14610505578063b3d7f6b9146105355761021c565b8063402d267d116101a857806370a082311161017757806370a0823114610425578063715018a614610455578063869155731461045f5780638da5cb5b1461047d57806394bf804d1461049b5761021c565b8063402d267d1461037757806340f02ab6146103a75780634cdad506146103c55780636e553f65146103f55761021c565b80630a28a477116101ef5780630a28a477146102bd57806318160ddd146102ed57806323b872dd1461030b578063313ce5671461033b57806338d52e0f146103595761021c565b806301e1d1141461022157806306fdde031461023f57806307a2d13a1461025d578063095ea7b31461028d575b600080fd5b6102296107a5565b60405161023691906122c8565b60405180910390f35b610247610846565b6040516102549190612373565b60405180910390f35b610277600480360381019061027291906123c6565b6108d8565b60405161028491906122c8565b60405180910390f35b6102a760048036038101906102a29190612451565b6108ec565b6040516102b491906124ac565b60405180910390f35b6102d760048036038101906102d291906123c6565b61090f565b6040516102e491906122c8565b60405180910390f35b6102f5610941565b60405161030291906122c8565b60405180910390f35b610325600480360381019061032091906124c7565b61094b565b60405161033291906124ac565b60405180910390f35b61034361097a565b6040516103509190612536565b60405180910390f35b6103616109b4565b60405161036e9190612560565b60405180910390f35b610391600480360381019061038c919061257b565b6109dc565b60405161039e91906122c8565b60405180910390f35b6103af610a06565b6040516103bc91906125c7565b60405180910390f35b6103df60048036038101906103da91906123c6565b610a1c565b6040516103ec91906122c8565b60405180910390f35b61040f600480360381019061040a91906125e2565b610a4e565b60405161041c91906122c8565b60405180910390f35b61043f600480360381019061043a919061257b565b610b38565b60405161044c91906122c8565b60405180910390f35b61045d610b80565b005b610467610b94565b60405161047491906122c8565b60405180910390f35b610485610b9a565b6040516104929190612560565b60405180910390f35b6104b560048036038101906104b091906125e2565b610bc4565b6040516104c291906122c8565b60405180910390f35b6104d3610c50565b6040516104e09190612373565b60405180910390f35b61050360048036038101906104fe919061264e565b610ce2565b005b61051f600480360381019061051a9190612451565b610d0e565b60405161052c91906124ac565b60405180910390f35b61054f600480360381019061054a91906123c6565b610d31565b60405161055c91906122c8565b60405180910390f35b61057f600480360381019061057a919061267b565b610d63565b60405161058c91906122c8565b60405180910390f35b6105af60048036038101906105aa919061267b565b610e4f565b6040516105bc91906122c8565b60405180910390f35b6105cd610f3b565b6040516105da91906122c8565b60405180910390f35b6105fd60048036038101906105f8919061257b565b610f41565b60405161060a91906122c8565b60405180910390f35b61062d600480360381019061062891906123c6565b610f6b565b60405161063a91906122c8565b60405180910390f35b61065d6004803603810190610658919061257b565b610f7f565b60405161066a91906122c8565b60405180910390f35b61068d6004803603810190610688919061257b565b610f9b565b60405161069a91906125c7565b60405180910390f35b6106bd60048036038101906106b8919061257b565b610fbe565b6040516106ca91906122c8565b60405180910390f35b6106ed60048036038101906106e891906126ce565b610fd0565b6040516106fa91906122c8565b60405180910390f35b61070b611057565b60405161071891906125c7565b60405180910390f35b61073b600480360381019061073691906123c6565b6110cb565b005b610757600480360381019061075291906123c6565b6110dd565b60405161076491906122c8565b60405180910390f35b6107876004803603810190610782919061257b565b61110f565b005b6107a3600480360381019061079e91906123c6565b611195565b005b60007f000000000000000000000000000000000000000000000000000000000000000073ffffffffffffffffffffffffffffffffffffffff166370a08231306040518263ffffffff1660e01b81526004016108009190612560565b602060405180830381865afa15801561081d573d6000803e3d6000fd5b505050506040513d601f19601f820116820180604052508101906108419190612723565b905090565b6060600380546108559061277f565b80601f01602080910402602001604051908101604052809291908181526020018280546108819061277f565b80156108ce5780601f106108a3576101008083540402835291602001916108ce565b820191906000526020600020905b8154815290600101906020018083116108b157829003601f168201915b5050505050905090565b60006108e58260006111a7565b9050919050565b6000806108f7611200565b9050610904818585611208565b600191505092915050565b6000806109238361091e61121a565b611224565b9050610939818461093491906127df565b611248565b915050919050565b6000600254905090565b600080610956611200565b905061096385828561125c565b61096e8585856112f0565b60019150509392505050565b60006109846113e4565b7f00000000000000000000000000000000000000000000000000000000000000006109af9190612813565b905090565b60007f0000000000000000000000000000000000000000000000000000000000000000905090565b60007fffffffffffffffffffffffffffffffffffffffffffffffffffffffffffffffff9050919050565b600860009054906101000a900463ffffffff1681565b600080610a28836113e9565b9050610a3b81610a3661121a565b6113fd565b81610a469190612848565b915050919050565b600080610a5a836109dc565b905080841115610aa5578284826040517f79012fb2000000000000000000000000000000000000000000000000000000008152600401610a9c9392919061287c565b60405180910390fd5b6000610ab0856110dd565b9050610ac5610abd611200565b85878461142c565b610acf85826114b5565b42600960003373ffffffffffffffffffffffffffffffffffffffff1673ffffffffffffffffffffffffffffffffffffffff16815260200190815260200160002060006101000a81548163ffffffff021916908363ffffffff160217905550809250505092915050565b60008060008373ffffffffffffffffffffffffffffffffffffffff1673ffffffffffffffffffffffffffffffffffffffff168152602001908152602001600020549050919050565b610b886114b9565b610b926000611540565b565b60075481565b6000600560009054906101000a900473ffffffffffffffffffffffffffffffffffffffff16905090565b600080610bd083610f41565b905080841115610c1b578284826040517f284ff667000000000000000000000000000000000000000000000000000000008152600401610c129392919061287c565b60405180910390fd5b6000610c2685610d31565b9050610c3b610c33611200565b85838861142c565b610c4581866114b5565b809250505092915050565b606060048054610c5f9061277f565b80601f0160208091040260200160405190810160405280929190818152602001828054610c8b9061277f565b8015610cd85780601f10610cad57610100808354040283529160200191610cd8565b820191906000526020600020905b815481529060010190602001808311610cbb57829003601f168201915b5050505050905090565b610cea6114b9565b80600860006101000a81548163ffffffff021916908363ffffffff16021790555050565b600080610d19611200565b9050610d268185856112f0565b600191505092915050565b600080610d3d83611606565b9050610d5081610d4b61161a565b611224565b81610d5b91906127df565b915050919050565b6000610d6d611624565b63ffffffff16610d7b611057565b63ffffffff161115610dc2576040517f08c379a0000000000000000000000000000000000000000000000000000000008152600401610db990612925565b60405180910390fd5b6000610dcd83610f7f565b905080851115610e18578285826040517ffe9cceec000000000000000000000000000000000000000000000000000000008152600401610e0f9392919061287c565b60405180910390fd5b6000610e238661090f565b9050610e2f868261162c565b610e43610e3a611200565b86868985611630565b80925050509392505050565b6000610e59611624565b63ffffffff16610e67611057565b63ffffffff161115610eae576040517f08c379a0000000000000000000000000000000000000000000000000000000008152600401610ea590612925565b60405180910390fd5b6000610eb983610fbe565b905080851115610f04578285826040517fb94abeec000000000000000000000000000000000000000000000000000000008152600401610efb9392919061287c565b60405180910390fd5b6000610f0f86610a1c565b9050610f1b818761162c565b610f2f610f26611200565b8686848a611630565b80925050509392505050565b60065481565b60007fffffffffffffffffffffffffffffffffffffffffffffffffffffffffffffffff9050919050565b6000610f788260006116bb565b9050919050565b6000610f94610f8d83610b38565b60006111a7565b9050919050565b60096020528060005260406000206000915054906101000a900463ffffffff1681565b6000610fc982610b38565b9050919050565b6000600160008473ffffffffffffffffffffffffffffffffffffffff1673ffffffffffffffffffffffffffffffffffffffff16815260200190815260200160002060008373ffffffffffffffffffffffffffffffffffffffff1673ffffffffffffffffffffffffffffffffffffffff16815260200190815260200160002054905092915050565b6000600860009054906101000a900463ffffffff16600960003373ffffffffffffffffffffffffffffffffffffffff1673ffffffffffffffffffffffffffffffffffffffff16815260200190815260200160002060009054906101000a900463ffffffff166110c69190612945565b905090565b6110d36114b9565b8060078190555050565b6000806110f1836110ec61161a565b6113fd565b905061110781846111029190612848565b611714565b915050919050565b6111176114b9565b600073ffffffffffffffffffffffffffffffffffffffff168173ffffffffffffffffffffffffffffffffffffffff16036111895760006040517f1e4fbdf70000000000000000000000000000000000000000000000000000000081526004016111809190612560565b60405180910390fd5b61119281611540565b50565b61119d6114b9565b8060068190555050565b60006111f860016111b66107a5565b6111c091906127df565b6111c86113e4565b600a6111d49190612ab0565b6111dc610941565b6111e691906127df565b8486611728909392919063ffffffff16565b905092915050565b600033905090565b611215838383600161177f565b505050565b6000600754905090565b600061124082612710600186611728909392919063ffffffff16565b905092915050565b60006112558260016116bb565b9050919050565b60006112688484610fd0565b90507fffffffffffffffffffffffffffffffffffffffffffffffffffffffffffffffff81146112ea57818110156112da578281836040517ffb8f41b20000000000000000000000000000000000000000000000000000000081526004016112d19392919061287c565b60405180910390fd5b6112e98484848403600061177f565b5b50505050565b600073ffffffffffffffffffffffffffffffffffffffff168373ffffffffffffffffffffffffffffffffffffffff16036113625760006040517f96c6fd1e0000000000000000000000000000000000000000000000000000000081526004016113599190612560565b60405180910390fd5b600073ffffffffffffffffffffffffffffffffffffffff168273ffffffffffffffffffffffffffffffffffffffff16036113d45760006040517fec442f050000000000000000000000000000000000000000000000000000000081526004016113cb9190612560565b60405180910390fd5b6113df838383611956565b505050565b600090565b60006113f68260006111a7565b9050919050565b6000611424826127108461141191906127df565b600186611728909392919063ffffffff16565b905092915050565b600061143f8361143a61161a565b6113fd565b9050600061144b611b7b565b905061145986868686611b83565b60008211801561149557503073ffffffffffffffffffffffffffffffffffffffff168173ffffffffffffffffffffffffffffffffffffffff1614155b156114ad576114ac6114a56109b4565b8284611c26565b5b505050505050565b5050565b6114c1611200565b73ffffffffffffffffffffffffffffffffffffffff166114df610b9a565b73ffffffffffffffffffffffffffffffffffffffff161461153e57611502611200565b6040517f118cdaa70000000000000000000000000000000000000000000000000000000081526004016115359190612560565b60405180910390fd5b565b6000600560009054906101000a900473ffffffffffffffffffffffffffffffffffffffff16905081600560006101000a81548173ffffffffffffffffffffffffffffffffffffffff021916908373ffffffffffffffffffffffffffffffffffffffff1602179055508173ffffffffffffffffffffffffffffffffffffffff168173ffffffffffffffffffffffffffffffffffffffff167f8be0079c531659141344cd1fd0a4f28419497f9722a3daafe3b4186f6b6457e060405160405180910390a35050565b60006116138260016111a7565b9050919050565b6000600654905090565b600042905090565b5050565b60006116438361163e61121a565b611224565b9050600061164f611ca5565b905061165e8787878787611cad565b60008211801561169a57503073ffffffffffffffffffffffffffffffffffffffff168173ffffffffffffffffffffffffffffffffffffffff1614155b156116b2576116b16116aa6109b4565b8284611c26565b5b50505050505050565b600061170c6116c86113e4565b600a6116d49190612ab0565b6116dc610941565b6116e691906127df565b60016116f06107a5565b6116fa91906127df565b8486611728909392919063ffffffff16565b905092915050565b60006117218260006116bb565b9050919050565b600080611736868686611da6565b905061174183611ead565b801561175e57506000848061175957611758612afb565b5b868809115b156117735760018161177091906127df565b90505b80915050949350505050565b600073ffffffffffffffffffffffffffffffffffffffff168473ffffffffffffffffffffffffffffffffffffffff16036117f15760006040517fe602df050000000000000000000000000000000000000000000000000000000081526004016117e89190612560565b60405180910390fd5b600073ffffffffffffffffffffffffffffffffffffffff168373ffffffffffffffffffffffffffffffffffffffff16036118635760006040517f94280d6200000000000000000000000000000000000000000000000000000000815260040161185a9190612560565b60405180910390fd5b81600160008673ffffffffffffffffffffffffffffffffffffffff1673ffffffffffffffffffffffffffffffffffffffff16815260200190815260200160002060008573ffffffffffffffffffffffffffffffffffffffff1673ffffffffffffffffffffffffffffffffffffffff168152602001908152602001600020819055508015611950578273ffffffffffffffffffffffffffffffffffffffff168473ffffffffffffffffffffffffffffffffffffffff167f8c5be1e5ebec7d5bd14f71427d1e84f3dd0314c0f7b2291e5b200ac8c7c3b9258460405161194791906122c8565b60405180910390a35b50505050565b600073ffffffffffffffffffffffffffffffffffffffff168373ffffffffffffffffffffffffffffffffffffffff16036119a857806002600082825461199c91906127df565b92505081905550611a7b565b60008060008573ffffffffffffffffffffffffffffffffffffffff1673ffffffffffffffffffffffffffffffffffffffff16815260200190815260200160002054905081811015611a34578381836040517fe450d38c000000000000000000000000000000000000000000000000000000008152600401611a2b9392919061287c565b60405180910390fd5b8181036000808673ffffffffffffffffffffffffffffffffffffffff1673ffffffffffffffffffffffffffffffffffffffff16815260200190815260200160002081905550505b600073ffffffffffffffffffffffffffffffffffffffff168273ffffffffffffffffffffffffffffffffffffffff1603611ac45780600260008282540392505081905550611b11565b806000808473ffffffffffffffffffffffffffffffffffffffff1673ffffffffffffffffffffffffffffffffffffffff168152602001908152602001600020600082825401925050819055505b8173ffffffffffffffffffffffffffffffffffffffff168373ffffffffffffffffffffffffffffffffffffffff167fddf252ad1be2c89b69c2b068fc378daa952ba7f163c4a11628f55a4df523b3ef83604051611b6e91906122c8565b60405180910390a3505050565b600030905090565b611baf7f0000000000000000000000000000000000000000000000000000000000000000853085611edb565b611bb98382611f5d565b8273ffffffffffffffffffffffffffffffffffffffff168473ffffffffffffffffffffffffffffffffffffffff167fdcbc1c05240f31ff3ad067ef1ee35ce4997762752e3a095284754544f4c709d78484604051611c18929190612b2a565b60405180910390a350505050565b611ca0838473ffffffffffffffffffffffffffffffffffffffff1663a9059cbb8585604051602401611c59929190612b53565b604051602081830303815290604052915060e01b6020820180517bffffffffffffffffffffffffffffffffffffffffffffffffffffffff8381831617835250505050611fdf565b505050565b600030905090565b8273ffffffffffffffffffffffffffffffffffffffff168573ffffffffffffffffffffffffffffffffffffffff1614611cec57611ceb83868361125c565b5b611cf68382612076565b611d217f00000000000000000000000000000000000000000000000000000000000000008584611c26565b8273ffffffffffffffffffffffffffffffffffffffff168473ffffffffffffffffffffffffffffffffffffffff168673ffffffffffffffffffffffffffffffffffffffff167ffbde797d201c681b91056529119e0b02407c7bb96a4a2c75c01fc9667232c8db8585604051611d97929190612b2a565b60405180910390a45050505050565b6000808385029050600080198587098281108382030391505060008103611de157838281611dd757611dd6612afb565b5b0492505050611ea6565b808411611e1a576040517f227bc15300000000000000000000000000000000000000000000000000000000815260040160405180910390fd5b600084868809905082811182039150808303925060008560000386169050808604955080840493506001818260000304019050808302841793506000600287600302189050808702600203810290508087026002038102905080870260020381029050808702600203810290508087026002038102905080870260020381029050808502955050505050505b9392505050565b600060016002836003811115611ec657611ec5612b7c565b5b611ed09190612bab565b60ff16149050919050565b611f57848573ffffffffffffffffffffffffffffffffffffffff166323b872dd868686604051602401611f1093929190612bdc565b604051602081830303815290604052915060e01b6020820180517bffffffffffffffffffffffffffffffffffffffffffffffffffffffff8381831617835250505050611fdf565b50505050565b600073ffffffffffffffffffffffffffffffffffffffff168273ffffffffffffffffffffffffffffffffffffffff1603611fcf5760006040517fec442f05000000000000000000000000000000000000000000000000000000008152600401611fc69190612560565b60405180910390fd5b611fdb60008383611956565b5050565b600061200a828473ffffffffffffffffffffffffffffffffffffffff166120f890919063ffffffff16565b9050600081511415801561202f57508080602001905181019061202d9190612c3f565b155b1561207157826040517f5274afe70000000000000000000000000000000000000000000000000000000081526004016120689190612560565b60405180910390fd5b505050565b600073ffffffffffffffffffffffffffffffffffffffff168273ffffffffffffffffffffffffffffffffffffffff16036120e85760006040517f96c6fd1e0000000000000000000000000000000000000000000000000000000081526004016120df9190612560565b60405180910390fd5b6120f482600083611956565b5050565b60606121068383600061210e565b905092915050565b60608147101561215557306040517fcd78605900000000000000000000000000000000000000000000000000000000815260040161214c9190612560565b60405180910390fd5b6000808573ffffffffffffffffffffffffffffffffffffffff16848660405161217e9190612cb3565b60006040518083038185875af1925050503d80600081146121bb576040519150601f19603f3d011682016040523d82523d6000602084013e6121c0565b606091505b50915091506121d08683836121db565b925050509392505050565b6060826121f0576121eb8261226a565b612262565b60008251148015612218575060008473ffffffffffffffffffffffffffffffffffffffff163b145b1561225a57836040517f9996b3150000000000000000000000000000000000000000000000000000000081526004016122519190612560565b60405180910390fd5b819050612263565b5b9392505050565b60008151111561227d5780518082602001fd5b6040517f1425ea4200000000000000000000000000000000000000000000000000000000815260040160405180910390fd5b6000819050919050565b6122c2816122af565b82525050565b60006020820190506122dd60008301846122b9565b92915050565b600081519050919050565b600082825260208201905092915050565b60005b8381101561231d578082015181840152602081019050612302565b60008484015250505050565b6000601f19601f8301169050919050565b6000612345826122e3565b61234f81856122ee565b935061235f8185602086016122ff565b61236881612329565b840191505092915050565b6000602082019050818103600083015261238d818461233a565b905092915050565b600080fd5b6123a3816122af565b81146123ae57600080fd5b50565b6000813590506123c08161239a565b92915050565b6000602082840312156123dc576123db612395565b5b60006123ea848285016123b1565b91505092915050565b600073ffffffffffffffffffffffffffffffffffffffff82169050919050565b600061241e826123f3565b9050919050565b61242e81612413565b811461243957600080fd5b50565b60008135905061244b81612425565b92915050565b6000806040838503121561246857612467612395565b5b60006124768582860161243c565b9250506020612487858286016123b1565b9150509250929050565b60008115159050919050565b6124a681612491565b82525050565b60006020820190506124c1600083018461249d565b92915050565b6000806000606084860312156124e0576124df612395565b5b60006124ee8682870161243c565b93505060206124ff8682870161243c565b9250506040612510868287016123b1565b9150509250925092565b600060ff82169050919050565b6125308161251a565b82525050565b600060208201905061254b6000830184612527565b92915050565b61255a81612413565b82525050565b60006020820190506125756000830184612551565b92915050565b60006020828403121561259157612590612395565b5b600061259f8482850161243c565b91505092915050565b600063ffffffff82169050919050565b6125c1816125a8565b82525050565b60006020820190506125dc60008301846125b8565b92915050565b600080604083850312156125f9576125f8612395565b5b6000612607858286016123b1565b92505060206126188582860161243c565b9150509250929050565b61262b816125a8565b811461263657600080fd5b50565b60008135905061264881612622565b92915050565b60006020828403121561266457612663612395565b5b600061267284828501612639565b91505092915050565b60008060006060848603121561269457612693612395565b5b60006126a2868287016123b1565b93505060206126b38682870161243c565b92505060406126c48682870161243c565b9150509250925092565b600080604083850312156126e5576126e4612395565b5b60006126f38582860161243c565b92505060206127048582860161243c565b9150509250929050565b60008151905061271d8161239a565b92915050565b60006020828403121561273957612738612395565b5b60006127478482850161270e565b91505092915050565b7f4e487b7100000000000000000000000000000000000000000000000000000000600052602260045260246000fd5b6000600282049050600182168061279757607f821691505b6020821081036127aa576127a9612750565b5b50919050565b7f4e487b7100000000000000000000000000000000000000000000000000000000600052601160045260246000fd5b60006127ea826122af565b91506127f5836122af565b925082820190508082111561280d5761280c6127b0565b5b92915050565b600061281e8261251a565b91506128298361251a565b9250828201905060ff811115612842576128416127b0565b5b92915050565b6000612853826122af565b915061285e836122af565b9250828203905081811115612876576128756127b0565b5b92915050565b60006060820190506128916000830186612551565b61289e60208301856122b9565b6128ab60408301846122b9565b949350505050565b7f4e6f7420656c696769626c65207269676874206e6f772c2066756e647320636160008201527f6e2062652072656465656d206166746572206c6f636b696e6720706572696f64602082015250565b600061290f6040836122ee565b915061291a826128b3565b604082019050919050565b6000602082019050818103600083015261293e81612902565b9050919050565b6000612950826125a8565b915061295b836125a8565b9250828201905063ffffffff811115612977576129766127b0565b5b92915050565b60008160011c9050919050565b6000808291508390505b60018511156129d4578086048111156129b0576129af6127b0565b5b60018516156129bf5780820291505b80810290506129cd8561297d565b9450612994565b94509492505050565b6000826129ed5760019050612aa9565b816129fb5760009050612aa9565b8160018114612a115760028114612a1b57612a4a565b6001915050612aa9565b60ff841115612a2d57612a2c6127b0565b5b8360020a915084821115612a4457612a436127b0565b5b50612aa9565b5060208310610133831016604e8410600b8410161715612a7f5782820a905083811115612a7a57612a796127b0565b5b612aa9565b612a8c848484600161298a565b92509050818404811115612aa357612aa26127b0565b5b81810290505b9392505050565b6000612abb826122af565b9150612ac68361251a565b9250612af37fffffffffffffffffffffffffffffffffffffffffffffffffffffffffffffffff84846129dd565b905092915050565b7f4e487b7100000000000000000000000000000000000000000000000000000000600052601260045260246000fd5b6000604082019050612b3f60008301856122b9565b612b4c60208301846122b9565b9392505050565b6000604082019050612b686000830185612551565b612b7560208301846122b9565b9392505050565b7f4e487b7100000000000000000000000000000000000000000000000000000000600052602160045260246000fd5b6000612bb68261251a565b9150612bc18361251a565b925082612bd157612bd0612afb565b5b828206905092915050565b6000606082019050612bf16000830186612551565b612bfe6020830185612551565b612c0b60408301846122b9565b949350505050565b612c1c81612491565b8114612c2757600080fd5b50565b600081519050612c3981612c13565b92915050565b600060208284031215612c5557612c54612395565b5b6000612c6384828501612c2a565b91505092915050565b600081519050919050565b600081905092915050565b6000612c8d82612c6c565b612c978185612c77565b9350612ca78185602086016122ff565b80840191505092915050565b6000612cbf8284612c82565b91508190509291505056fea2646970667358221220de802220d8eb1c66f4881d656c7ec4357c2b4a3f67c38c0f86d8aac7241b18f964736f6c63430008150033",
  "linkReferences": {},
  "deployedLinkReferences": {}
}